:020000040040BA
:10000000C0304020D11C4000CF1C4000CF1C40001D
:10001000CF1C4000CF1C4000CF1C4000000000005F
:10002000000000000000000000000000CF1C4000A5
:10003000CF1C400000000000CF1C4000CF1C40003F
:10004000CF1C4000CF1C4000CF1C4000CF1C400004
:10005000CF1C4000CF1C4000CF1C4000CF1C4000F4
:10006000CF1C400000000000491640005D16400013
:1000700071164000CF1C4000CF1C4000CF1C400038
:100080008516400099164000CF1C4000CF1C400050
:10009000CF1C4000CF1C4000CF1C4000CF1C4000B4
:1000A000CF1C4000CF1C4000CF1C4000CF1C4000A4
:1000B000CF1C4000CF1C4000CF1C4000CF1C400094
:1000C000CF1C4000CF1C4000CF1C4000CF1C400084
:1000D000CF1C4000CF1C4000CF1C4000CF1C400074
:1000E000CF1C4000CF1C4000CF1C4000CF1C400064
:1000F000CF1C4000CF1C4000CF1C4000CF1C400054
:10010000CF1C4000CF1C4000CF1C4000CF1C400043
:10011000CF1C4000000000000000000000000000B4
:10012000CF1C4000CF1C4000CF1C4000CF1C400023
:10013000CF1C4000CF1C4000CF1C4000CF1C400013
:10014000CF1C4000CF1C4000CF1C4000CF1C400003
:10015000CF1C4000CF1C4000CF1C4000CF1C4000F3
:10016000CF1C4000CF1C400010B5054C237833B99C
:10017000044B13B10448AFF300800123237010BD7A
:10018000C009402000000000D01043000C4B43B1D8
:100190000C480D4910B5AFF300800C48036823B933
:1001A00010BD0A48036833B97047094B002BF7D0DC
:1001B000BDE810401847064B002BF5D0184700BF8C
:1001C00000000000D0104300C4094020D0104300BC
:1001D00000000000F0B587B004460E461746816067
:1001E000027383610025056107209D4B98472060BD
:1001F00001950595022302930390072304938DF83C
:10020000147001A93046974B9847401B18BF012036
:10021000404208B107B0F0BD2568A87900EB400066
:1002200040008F4B9847606000230193049305932F
:1002300007238DF80430022302930390AB7903EB7C
:1002400043035B000493237B8DF8143001A9A0685D
:10025000844B9847003018BF012040420028D9D174
:1002600027686068BB7903EB430676000736B6B2B1
:100270003A4606370021DFF8F0C192F801E0157820
:1002800045EA0E2585EA410111F0807F18BF81EA19
:100290000C010232BA42F0D1027843EA022383EA27
:1002A000410212F0807F03D082F4000282F01B0230
:1002B000A6F10807012F12DD0123DFF8ACE1C11818
:1002C0004D78C15C41EA052181EA420212F0807F4B
:1002D00018BF82EA0E0202339BB2BB42EFDB30440E
:1002E00010F8083C83EA420212F0807F03D082F4C7
:1002F000000282F01B0222F07F4500230193059348
:100300008DF80460360A8DF8056002230293CDF85B
:100310000CD003230493237B8DF8143001A9A0682B
:10032000504B984728B34FF0FF33AB4240F08B80DF
:100330002568A87998B100230133DAB29042FBD83E
:100340006268431EDBB2013303EB430302EB43015C
:10035000002053791844C0B206329142F9D14000CE
:100360003F4B98476061AB7973B100270126BE46C9
:1003700037E09DF802209DF8003043EA02439DF8E3
:10038000012043EA0223D0E76FF0030042E7013087
:10039000C0B262685319197981421CD35B79002B72
:1003A000F5D062682A445379002BF0D03346117897
:1003B000626902F81310626902EB43025070013364
:1003C000DBB262682A44991B92F805C0C9B28C4519
:1003D000EDD81E46DBE70137FFB223689B799F42C9
:1003E00007D207EB47035A0015466368134470466B
:1003F000D4E75BB31046013BDBB2013303EB4303AD
:1004000002EB4302002143791944C9B2063082420B
:10041000F9D1F1B162691378092B0FD000230133B0
:10042000DBB28B420CD012F8020F0928F7D15BB275
:10043000B3F1FF3F10D023770020EBE60023F6E76F
:100440006FF00300E6E66FF00300E3E66FF00300F1
:10045000E0E66FF00300DDE66FF00300DAE600BFD0
:10046000BD2640004D1A40001B00800003689A79A9
:10047000D2B110B4446823788B420ED0A31D013A48
:10048000D2B2013202EB420204EB4202934209D0A3
:100490001C4613F8060B8842F8D1B4F801005DF849
:1004A000044B70470020FAE70020704730B587B052
:1004B00000230193049305938DF804100B0A8DF823
:1004C000053002230293039203689A79BAB1446813
:1004D000B4F801308B420FD0A31D013AD2B20132E1
:1004E00002EB420204EB4202934216D01C46063352
:1004F000B4F801508D42F7D1E2780132D2B20492C1
:10050000037B8DF8143001A98068054B98470030B3
:1005100018BF0120404207B030BD0022EFE700BF06
:10052000F91A400000B589B08DF807200023039325
:1005300007938DF80C10090A8DF80D10022304930F
:100540000DF10703059301230693037B8DF81C30FF
:1005500003A98068044B9847003018BF012040422F
:1005600009B05DF804FB00BFF91A40008269074B2F
:1005700003EB52135B02D96B02F01F02012303FA53
:1005800002F20A420CBF18460020704707072000FD
:1005900030B587B004460D46002205210D4B984723
:1005A0000023019305938DF80400000A8DF80500DF
:1005B00002230293039509230493237B8DF81430BF
:1005C00001A9A068044B9847003018BF01204042A1
:1005D00007B030BD6D0440004D1A4000F0B585B045
:1005E00004460E46174D184F2046A84728B301A9C8
:1005F0002046B847034610BB9DF80430626912F8E4
:100600001320092AF0D1227F9B1A33709DF8053000
:1006100073709DF808309DF806101A0942EA01121D
:1006200072809DF8072003F00F0343EA0213B380A2
:100630009DF80930B371002301E06FF00303184601
:1006400005B0F0BD6D0540009105400010B51048A3
:10065000104B98473E2100200F4B98470F4CA04766
:100660000028FCD00E4B98470E4A0F4B9A620F4C55
:10067000A0470028FCD002200D4B984700200D4BCE
:1006800098470D4B98470D48024B984710BD00BF47
:10069000000E2707A51E4000491740009D17400087
:1006A000AD174000013F182000060E40BD17400066
:1006B000AD164000E5164000991D400000A3E11171
:1006C000002A54D02DE9F84F924606460F468A4438
:1006D000DFF8B880274DDFF8B89006E021464046A5
:1006E000A8470028FAD1BA453ED017F8014B464535
:1006F000F4D04E4516D0204B9E4219D01F4B9E423F
:100700001CD01F4B9E421FD01E4B9E4224D01E4B1E
:100710009E42E8D1DFF87CB021461B48D84700282C
:10072000FAD1E0E721464846A8470028FAD1DAE79F
:1007300021461148A8470028FAD1D4E721460F489E
:10074000A8470028FAD1CEE7DFF848B021460C4888
:10075000D8470028FAD1C6E7DFF838B02146094863
:10076000D8470028FAD1BEE70020BDE8F88F002066
:10077000704700BF991B4000001A0E40001C0E403D
:10078000004002400080024000C0024000080E40CD
:10079000000A0E40A11C400010B50446104B9847BB
:1007A00080232360636843F001036360636843F060
:1007B00010036360636823F08003636000212046B8
:1007C000084B9847636823F002036360636823F073
:1007D0000403636000212046034B984710BD00BF0F
:1007E000ED174000191840002F1840002DE9F04186
:1007F00004460D46164615491846154B98470746B8
:1008000000231A4629682046DFF85C80C04708228A
:10081000296820460F4B9847FAB2296820460E4BAC
:1008200098470822296820460C4B98477208296887
:1008300020460B4B984786F0010202F0010229681E
:100840002046084B9847BDE8F08100BF80D1F008F2
:100850000B194000F718400021194000B118400062
:1008600075184000931840004919400008B54368C6
:1008700013F0040F06D009680F2900D908BD064BF4
:10088000984708BD09680329F8D8012303FA01F144
:10089000C943014B9847F1E7191840001AB110B449
:1008A0000C46114406E00020704714F8013BC36079
:1008B000A1420CD043F69923026912F0020FF4D141
:1008C000013BF9D16FF002005DF8044B7047002046
:1008D000FAE73AB170B415460C460D44FF2640F2D3
:1008E000012112E000207047C66043F69923026997
:1008F00031EA020204D0013BF9D16FF002000EE0B0
:10090000836804F8013BA5420BD043F699230269A2
:1009100012F0020FE8D1013BF9D16FF0020070BC78
:1009200070470020FBE700002DE9F04180B90C463C
:100930009046002A0FDD8F18084E094D3068214679
:100940002B6898470134BC42F8D14046BDE8F0819D
:100950004FF0FF38F9E78046F7E700BF301040203E
:10096000281040200138022815D82DE9F0410E4604
:1009700014469AB10D46DFF838800C4FD8F80000C5
:1009800015F8011B3B68984700280ADBA81B013CAF
:10099000F4D1BDE8F0814FF0FF3070471046BDE85C
:1009A000F0814FF0FF30BDE8F08100BF2C104020F7
:1009B000301040202DE9F0414FF400429E4B5A6028
:1009C000BFF34F8FBFF36F8F9C4B0022C3F85022B1
:1009D0005A6942F400325A61BFF34F8FBFF36F8FF1
:1009E000D3F88070C7F34E3607F007000430C7F322
:1009F000C907B7FA87FE0EF01F0EBFF34F8F4FF0F7
:100A0000FF3404FA00FC06FA00F004FA0EF407FAC8
:100A10000EFE1D463A46734640EA0301C5F86012D1
:100A2000013A2344B2F1FF3FF6D1013E6044B6F1F2
:100A3000FF3FEFD1BFF34F8F804B5A6942F48032B2
:100A40005A61BFF34F8FBFF36F8F7D4A7D4951606D
:100A5000A1F580715160BFF34F8FBFF36F8FD3F853
:100A6000902222F00102C3F89022D3F8942222F0BF
:100A70000102C3F89422BFF34F8FBFF36F8F0A2098
:100A8000714CA0470B20A0470C20A0471020A04786
:100A90001120A0476D4E4FF48078C6F81080C6F83C
:100AA000A080C6F830806A4C4FF400656561C4F8D8
:100AB000A0506566C4F8905065652562C4F88450FE
:100AC000236F23F400632367636F23F4006363677A
:100AD000C4F8C050C4F8D450C4F8B0504FF4001358
:100AE0002366C4F8903063656362C4F88030226F77
:100AF00022F400122267626F22F4001262676360C0
:100B0000544AD2F8143143F01003C2F8143102F5FC
:100B1000B22210231366C2F8903053655362C2F8B4
:100B20008030116F19431167516F1943516753603A
:100B300008222266C4F8902062656262C4F88020B0
:100B4000216F21F008012167616F21F008016167C1
:100B500062602366C4F8903063656362C4F88030D5
:100B6000226F22F010022267626F22F01002626789
:100B7000636000234FF400524FF060513046364F0F
:100B8000B84700234FF080424FF060513046B847DD
:100B90000123FF224FF000613046B84701233F2276
:100BA0004FF000612D48B84701234FF4C0324FF099
:100BB00000612046B847012342464FF000613046AD
:100BC000B84701232A464FF000613046B847012359
:100BD0004FF400224FF000612148B84700234FF442
:100BE00000724FF080513046B8474FF400713046E4
:100BF0001C4B98474FF0805174201B4CA0474FF07E
:100C000080517520A0474FF080517620A0474FF0CB
:100C100080517B20A0474FF060511820A0474FF033
:100C200060510620A0474FF060515320A047532049
:100C30000E4B9847BDE8F08150180E4000ED00E0E3
:100C4000000C0E400C08005ACD17400000120E4058
:100C5000000E0E4000800840F913400000160E40C0
:100C600000140E4005134000C914400091144000C8
:100C700030B40468B4F5F07F02D340F2DF140460AE
:100C80001468B4F5F07F02D340F2DF1414600C68EE
:100C9000B4F5A07F02D340F23F140C601C68B4F599
:100CA000A07F02D340F23F141C6004681568AC4278
:100CB00001D9056014600A681868824201D9086089
:100CC0001A6030BC7047000010B582B006200A4B95
:100CD0009847002303222C210848094CA0470023F1
:100CE0000193019BFE2B05D8019B01330193019BCE
:100CF000FE2BF9D902B010BDAD14400000800040B9
:100D00004118400070B582B005460E4614460620D4
:100D1000144B98470023032229461348134DA84734
:100D200000230193019BFE2B05D8019B0133019306
:100D3000019BFE2BF9D90CB902B070BD06200C4BFB
:100D400098472246314608480A4B984700230193AA
:100D5000019B5E2BF0D8019B01330193019B5E2B1D
:100D6000F9D9E9E7AD144000008000404118400087
:100D7000911440009D08400030B583B004460D46F4
:100D800006200A4B98472A4621460948094B9847AE
:100D900000230193019BFE2B05D8019B0133019396
:100DA000019BFE2BF9D903B030BD00BF9114400068
:100DB000008000409D084000014630B1034A044BCA
:100DC000013BFDD19142FAD870477047A1860100DE
:100DD000A086010000B583B058B948238DF80730CC
:100DE00001220DF107013620044B984703B05DF84E
:100DF00004FBE8238DF80730F2E700BF050D400043
:100E000010B584B0ADF80E00013A0244ADF80C20E4
:100E1000ADF80A10013B1944ADF80810030A8DF82B
:100E200004308DF80500C2F307238DF806308DF8E5
:100E3000072004220DEB02012A20104CA0470022BB
:100E400011461046A0479DF80B308DF804309DF8F0
:100E50000A308DF805309DF809308DF806309DF880
:100E600008308DF8073004220DEB02012B20A0473B
:100E7000002211461046A04704B010BD050D4000E9
:100E800008B5002211462920014B984708BD00BF34
:100E9000050D400010B4C0F30744C0F30721064B12
:100EA00003F5B4621C705970987003339342F9D102
:100EB0005DF8044B704700BFDC09402010B584B0DA
:100EC000ADF80600ADF80410030A8DF80C30C0B27E
:100ED0008DF80D008DF80E308DF80F00042203A957
:100EE0002A200E4CA047002211461046A0479DF82C
:100EF00005208DF80C209DF804308DF80D308DF80C
:100F00000E208DF80F30042203A92B20A0470022C9
:100F100011461046A04704B010BD00BF050D4000AB
:100F20002DE9F04387B08146032706AE46F8087DD9
:100F30005D4D28465D4B9847002400945C4B3A4633
:100F400031462846DFF89881C04722463946284670
:100F5000584B984731462846574B98470120286000
:100F6000686122462146554EB047C820544DA847D7
:100F7000224621461120B047C820A84781238DF87A
:100F80000A308DF80B4010264FF001084B4F2546D4
:100F900042460DF10A01FB20B8479DF80A300133A3
:100FA0008DF80A300395039BFE2B05D8039B013374
:100FB0000393039BFE2BF9D92A462946D320B84731
:100FC0000620404B984742460DF1090136483E4BFA
:100FD00098470395039BFE2B05D8039B013303938E
:100FE000039BFE2BF9D99DF80930B3401C434246C0
:100FF0000DF10B01FB20B8470395039A40F6FE73F1
:101000009A4206D81A46039B01330393039B9342EB
:10101000F9D9083E16F1080FBAD149F288439C422B
:1010200003D0012007B0BDE8F08306AD482305F8E2
:10103000013D012229463620204EB0476420204C35
:10104000A04704238DF8173001222946CF20B0474E
:101050006420A04706238DF81730012229463A2044
:10106000B0476420A047002211461320B0476420F7
:10107000A047164B98476420A0470120144B98477F
:101080006420A047B9F80430B9F8002000210846D0
:10109000104CA047D9F808000F4B9847002108468C
:1010A0000E4B98470020BDE70080004099074000A4
:1010B000002D3101B11840006D084000050D4000C1
:1010C000B90D400091144000D3084000810E40004B
:1010D000D50D4000010E4000950E4000BD0E4000B1
:1010E000ED074000B0F5F07F0FD2B1F5A07F0CD234
:1010F00008B589B280B2064B9847064B9847032142
:101100000548064B9847002008BD0120704700BFE6
:10111000BD0E4000C90C4000DC094020790D4000A4
:101120002DE9F04184B003900291019204AA42F8A3
:10113000103D134601AA02A903A8224CA047BDF8FE
:101140000C00BDF80810009B01335B1A019A0132B4
:10115000121A9BB292B21C4CA0471C4B98470399A1
:10116000019D691A009D0135029BED1A01FB055591
:10117000174BA3FB05231B0A63B15C1EDFF85880E5
:101180004FF4B467134E39464046B047013CB4F1C2
:10119000FF3FF8D10E49A1FB0531090AC1EB01114E
:1011A000A5EB411101EB41010B480A4B98474FF465
:1011B000A0734FF4F07200210846034CA04704B01E
:1011C000BDE8F081710C4000010E4000C90C4000E8
:1011D00089888888790D4000DC0940202DE9F04F8E
:1011E00085B0039002921378002B48D08B46019073
:1011F000DFF8948033E00BF1100B039B019329E09F
:10120000013CB4F1FF3F09D02B78234113F0010FCB
:10121000F6D0AAEB04013046C047F1E707240BF1F2
:101220000F0902E0013C012C09D07B78234113F027
:10123000010FF7D0A9EB04013046C047F2E70235B1
:101240000136009BB34202D007242F46DCE7019B06
:101250000C330193029A12F8013F02927BB10A2BE0
:10126000C9D003EB8303074D05EB8303A3F520757A
:10127000019E33460A3300930BF1070AE4E705B0F9
:10128000BDE8F08FCC564000E510400010B584B0AA
:1012900003900291013A10440190013B194404ABC0
:1012A00043F8101D01AA02A903A8134CA047BDF8DA
:1012B0000C00BDF80810009B01335B1A019A013243
:1012C000121A9BB292B20D4CA0470399019A511A7F
:1012D000029A009B9A1A02FB01F202EB4202069963
:1012E0002C20074B98474FF4A0734FF4F072002165
:1012F0000846A04704B010BD710C4000010E40002C
:10130000050D4000016370474264B1F1C05F3AD0FF
:1013100013D8B1F1006F25D0B1F1805F0AD1036F0E
:1013200013430367436F416F0B4023EA0203436794
:10133000426070470029FBD17047B1F1205F21D096
:1013400009D8B1F1005FF3D1036F13430367436F13
:1013500013434367ECE7B1F1405F13D0B1F1605F35
:1013600010D0E5E710B4016F046FD34321401C4651
:1013700019400167436F416F0B4023404367426050
:101380005DF8044B7047036F016F0B4023EA0203C3
:101390000367436F13434367CAE7416412F0010FC9
:1013A0000DD1016612F00A0F0BD0016212F0020F8C
:1013B00009D112F0080F08D0C0F8841005E041668A
:1013C000F0E74162F2E7C0F88010416101607047C8
:1013D00010B4019C41644CB901664BB101654AB936
:1013E0004163016101605DF8044B70474166F4E7B9
:1013F0004165F4E70163F4E770B582B0054616462F
:101400001C46B1F1005F14D00AD9B1F1405F24D07D
:10141000B1F1605F21D0B1F1205F17D000201AE058
:10142000B1F1805F05D0B1F1C05F02D0B1F1006FC2
:10143000F4D132462846114B984714F0010F02D1DF
:101440002E66012007E06E66012004E01A46314650
:101450000B4B9847012002B070BD04F001030093CC
:10146000C4F38003B1F1605F14BF00220122314652
:101470002846044CA0470120EDE700BF09134000B7
:101480009B134000D1134000C06C7047806C7047C4
:10149000054B03EB50135B0200F01F00012202FA20
:1014A00000F01863704700BF07072000054B03EBEF
:1014B00050135B0200F01F00012202FA00F0586393
:1014C000704700BF0707200070B582B00D46464C3C
:1014D00004EB5014640201F0F043B3F1005F59D003
:1014E0000AD8B3F1805F2FD0B3F1C05F3FD0B3F122
:1014F000006F16D0002012E0B3F1405F5DD0B3F171
:10150000605F5AD0B3F1205FF4D100F01F010126D3
:101510002A4606FA01F12046344B9847304602B07D
:1015200070BD00F01F000126864032464FF000617A
:1015300020462F4B984715F0010F02D12666012057
:10154000EDE766660120EAE700F01F00012686400D
:1015500032464FF080512046254B984715F0010F39
:1015600002D126660120DAE766660120D7E700F09F
:101570001F000126864032464FF0C05120461C4BCA
:10158000984715F0010F02D126660120C7E766666D
:101590000120C4E700F01F000126864032464FF0CC
:1015A00000512046124B984715F0010F02D12666D4
:1015B0000120B4E766660120B1E705F0605200F053
:1015C0001F01012605EA06030093C5F38003B2F16B
:1015D000605F14BF0022012206FA01F12046054C8B
:1015E000A04730469BE700BF070720009B13400041
:1015F00009134000D11340002DE9F041044688460C
:101600000E4B9847054620460D4B9847054013D092
:101610000C4C04F1600603E0B4420DD010345DB10F
:1016200020684045F8D161682942F5D0E3689847C1
:10163000636825EA0305EFE7BDE8F08189144000FF
:101640008D1440007C0F402008B50A210148024B50
:10165000984708BD000E0E40F915400008B50B2153
:101660000148024B984708BD00100E40F915400094
:1016700008B50C210148024B984708BD00120E40E6
:10168000F915400008B510210148024B984708BDE4
:1016900000140E40F915400008B511210148024B15
:1016A000984708BD00160E40F9154000032811D0D8
:1016B000042812D002280CBF4FF480710021084A80
:1016C000136B23F440730B431363936E13F0080FF3
:1016D000FBD070474FF44071F1E74FF40071EEE733
:1016E00000060E40174A136B23F070031843106373
:1016F000936E13F0080F0AD14FF4805311498A6E8C
:1017000012F0080F03D1013BF9D1012070470D4AB7
:10171000136B23F0030343F002031363936E13F080
:10172000080F0AD14FF4805306498A6E12F0080F51
:1017300005D1013BF9D101207047002070470020FE
:10174000704700BF00060E40A0B90E48036A0902A8
:1017500089B20D4A1A400D4B1343194301620246E8
:10176000936E13F0010FFBD0064A116A084B0B432E
:101770001362704703490B6A064A1A40064B13432B
:101780000B62704700060E40FCFFC8FF01003700E7
:1017900000003701FCFFC8FE02003701024B986EC3
:1017A00000F48030704700BF00060E404FF000523A
:1017B000014B9A62704700BF00060E40024B986EC4
:1017C00000F00200704700BF00060E4000F07F00EE
:1017D000054BC3F80C01D3F80C2142F01022C3F8DA
:1017E0000C210020704700BF00060E4008B5074BD3
:1017F000984203D0064B984204D008BD1520054BF3
:10180000984708BD2A20034B9847F6E70080004020
:1018100000800540CD174000436823F470234360E7
:101820004368090401F4702119434160704743681B
:1018300023F07F434360436843EA0161416070479E
:1018400030B443F69924056915F0020F03D1013C29
:10185000F9D101200CE0446814F0020F06D0120404
:1018600002F4702211430BB141F08071C16000207D
:1018700030BC704732B900EB8100036B23F00103E9
:101880000363704700EB8100036B43F001030363C4
:10189000704732B900EB8100036B23F0020303634E
:1018A000704700EB8100036B43F002030363704752
:1018B000042A03D06AB1082A16D0704700EB8100D1
:1018C000036B23F008030363036B43F00403036318
:1018D000704700EB8100036B23F008030363036B85
:1018E00023F004030363704700EB8100036B43F0B4
:1018F00008030363E1E700EB81010B6B23F0F003C6
:101900000B630B6B1A430A637047431E1944B1FB08
:10191000F0F0431EFE2B94BF00B24FF0FF30704733
:101920007AB110B4144600EB81010B6B23F47F43B2
:101930000B630A6B42EA04220A6300205DF8044B41
:1019400070474FF0FF30704710B400EB8101086B17
:1019500080B208630C6B44EA036343EA02430B63FF
:101960005DF8044B70470000284B99424BD8A3F513
:101970007A5399422DD910B4254CA4FB0234A40B00
:10198000033C244B0B449B00B2FBF3F2033AFF2CC5
:101990001DD9002101316408FF2C01D90629F9D98C
:1019A000FF2A07D9062905D801315208FF2A01D993
:1019B0000629F9D913029BB2090401F4E0210B4373
:1019C000E4B22343036100205DF8044B704700211B
:1019D000E6E74900B2FBF1F2033AFF2A11D90023EE
:1019E00001335208FF2A01D9062BF9D9110289B215
:1019F0001B0403F4E0230B43D2B21A43026100201C
:101A000070470023F2E70120704700BF801A0600EC
:101A1000F11976050012FD3F08B54FF0FF328262E2
:101A2000026A80220260026B0822026020220260A9
:101A3000042202600A684968034B9847012814BFD2
:101A40000020012008BD00BF69194000CA68002AB3
:101A50004CD070B48C68002646604B681B0203F4BF
:101A6000407343F480530D7C2D0405F4FE052B4395
:101A70004360C6604D685DB10B78012D02DD4E7884
:101A800046EA0323022D04DD897841EA032300E0BE
:101A90000023C36001230360022512E0056013F0F8
:101AA000020F1BD0036B2370036A13F0010FFBD0EE
:101AB000036A002070BC7047036B04F8013B013AD5
:101AC000F2D0036A13F4807F14D147F23051012A17
:101AD000E4D013F0020FEFD1002AE5D0036A13F42B
:101AE000807F05D10139F2D10920E3E70120704759
:101AF0000520DFE70520DDE7CB68002B43D070B47D
:101B00008C68002646600A7C120402F4FE024D68CE
:101B10002D0205F440752A434260C6604D685DB1F0
:101B20000A78012D02DD4E7846EA0222022D04DDFC
:101B3000897841EA022200E00022C26004E014F841
:101B4000012B4263013B0FD0026A12F4807F1ED149
:101B500012F0040FF3D1026A12F4807F15D112F053
:101B6000040FECD1002BF6D1036A13F4807F11D15E
:101B700013F0040FF8D002230360036A13F0010F7F
:101B8000FBD0002004E001207047052000E0052084
:101B900070BC70470520FBE7436913F0020F02D0C9
:101BA000C1610020704701207047436913F0010FA5
:101BB00003D083690B70002070470120704710B478
:101BC0000B01934214D9C9004B0803EBC202B2FBCC
:101BD000F1F2D3085C1E4FF6FE718C4201D9012050
:101BE00017E0416841F4002141600CE0012010E061
:101BF000590801EBC202B2FBF3F2D3085C1E4FF6A8
:101C0000FE718C42F2D8120402F4E0221A430262FE
:101C100000205DF8044B7047084BC0F8E430002307
:101C200043604362836288230360242303604FF48C
:101C3000807303604FF400230360704700415355E5
:101C400070B505460C4616460F4B984700220F4BC1
:101C50001A60A4B13246216828460D4B98470246C7
:101C600078B96368A1680B4321690B43E1680B43B2
:101C700006490B6069680B436B60104670BD01221A
:101C8000FBE70122F9E700BF191C4000EC0F4020E0
:101C9000BF1B400040230360704710230360704760
:101CA000436913F0020F04D0C1F30801C1610020A1
:101CB000704701207047436913F0010F05D0836915
:101CC000C3F308030B600020704701207047FEE754
:101CD00000B583B0254B264A9A4210D0254B234AA3
:101CE0009A420CD2013B9B1A23F0030304331344A2
:101CF0001F4951F8040B42F8040B9A42F9D11E4BCC
:101D00001E4A9A420AD2013B9B1A23F00303043372
:101D10001344002142F8041B9342FBD1184A194B8B
:101D200023F07F039360EFF31083B3FA83F35B092F
:101D3000019372B6BFF35F8F0022134B1A700199A3
:101D4000124A136843F470031360BFF34F8FBFF35D
:101D50006F8F29B101220C4B1A70BFF35F8F62B6EF
:101D60000B4B98470B4B9847FEE700BF0000402005
:101D7000D0104300C0094020BC104020C0094020C2
:101D800000ED00E0000040000A00402088ED00E087
:101D900045264000C52340003B4B1B6B03F003036B
:101DA000012B1DD083B1022B36D0374B1B6B03F0B8
:101DB0007003702B5FD0344B1A6B3449C2F302129C
:101DC0000B68D3400B607047314B5B6913F0800F99
:101DD00014BF4FF400424FF4FA422C4B1A60E4E770
:101DE000294B1B6A13F0807F03D02A4A274B1A60C5
:101DF000DBE7294A254B1A60234B1B6A03F070036B
:101E0000102B05D0202BD0D1224A204B1A60CCE7D2
:101E1000224A1E4B1A60C8E71B4B1B6A13F0807FD7
:101E200016D01C4A194B1A60174B1B6B03F00303A7
:101E3000022BBAD1144A916A926A1448C1F30A413A
:101E4000036801FB0333D2B2B3FBF2F30360ACE7E8
:101E5000114A0E4B1A600C4B1B6A03F07003102BD7
:101E600005D0202BE0D10B4A084B1A60DCE70B4A67
:101E7000064B1A60D8E7054A13680949A1FB03130A
:101E80005B081360704700BF00060E400C00402046
:101E900010180E40001BB70000093D0000127A0028
:101EA000ABAAAAAA164B984213D9164B984215D939
:101EB000154B984216D9154B984217D9144B984296
:101EC00018D9144B984294BF134A144A144B1A6001
:101ED00070474FF08062124B1A607047114A104BE6
:101EE0001A607047104A0E4B1A6070470F4A0C4B2D
:101EF0001A6070474FF00422094B1A60704700BF08
:101F0000BFF35E017FE7BD023FDB1C04FFCE7B0514
:101F1000BFC2DA067FB639080005000400060004D7
:101F2000000C0E4000010004000200040003000445
:101F30000A4B1B6853B1094B1B681A180849914298
:101F400008DB1046054A106018467047054A034BE7
:101F50001A60F0E74FF0FF30704700BFF00F4020ED
:101F6000FCFF4520C03240204FF0FF3070474FF457
:101F700000534B60002070470120704700207047DD
:101F80007047704708B50248024B984708BD00BF2C
:101F9000B85E40009526400008B50248024B9847BD
:101FA00008BD00BF240F43009526400008B5024835
:101FB000024B984708BD00BF180F4300952640000C
:101FC000F0B583B005460C46002301932A4B984296
:101FD00013D02A4B984218D0294B98421DD0294B38
:101FE0009D4222D0284B9D4227D0284B9D422ED087
:101FF000274B9D4235D003B0F0BD1F46254E2146EC
:102000003846B0470028FAD1E9E71F46214E21465D
:102010003846B0470028FAD1E4E71F461D4E214656
:102020003846B0470028FAD1DFE71F46194E21464F
:102030003846B0470028FAD1DAE71E46164D01A906
:102040003046A8470028FAD1019B2370D3E71E46EB
:10205000114D01A93046A8470028FAD1019B2370F1
:10206000C9E71E460C4D01A93046A8470028FAD101
:10207000019B2370BFE700BF00080E40000A0E401E
:10208000001A0E40001C0E4000400240008002403A
:1020900000C00240AB1B4000B71C400070B50C46AE
:1020A0002A4B984213D02A4B984219D0294B984278
:1020B0001FD0294B984225D0284B98422BD0284B33
:1020C000984231D0274B984237D0002070BD1E4631
:1020D000254D21463046A8470028FAD1012070BD81
:1020E0001E46214D21463046A8470028FAD101203E
:1020F00070BD1E461C4D21463046A8470028FAD127
:10210000012070BD1E46184D21463046A8470028C4
:10211000FAD1012070BD1E46144D21463046A84715
:102120000028FAD1012070BD1E46104D21463046D0
:10213000A8470028FAD1012070BD1E460B4D21464C
:102140003046A8470028FAD1012070BD00080E4093
:10215000000A0E40001A0E40001C0E4000400240D3
:102160000080024000C00240991B4000A11C4000BA
:10217000F0B5DDF814E0DAB10F46002103E00131DB
:102180001030914212D004889C42F8D885882C44A3
:10219000A342F4D844887445F1D8C5882C44A64598
:1021A000EDD80FC887E80F000120F0BD0020F0BD7A
:1021B0000020F0BD10B50648064B984740F23F138B
:1021C00040F2DF1200210846034CA04710BD00BFBB
:1021D000FCFCFC00950E4000211140002DE9F04769
:1021E000D0B005468A469146D22200211BA8204B3A
:1021F000984700241F4EDFF89C801F4F0AE006A975
:102200001BA8B8470134E4B228461C4B9847022C5F
:1022100020D8F8B118A92846B0470028F4D1BDF855
:10222000623003EB8303BDF86420C2EB0212C2F3F9
:10223000D312C2F5F0720092C3F393134A4602A977
:102240005046C0470028DAD00D480E4B9847059BF2
:102250009847D4E714B950B0BDE8F0871BA80A4BE3
:10226000984702461BA90948094B9847F3E700BF66
:102270002D2C4000DD054000A52E40006D054000DE
:10228000FC0E430095264000C12F40000080024014
:10229000C10640007121400030B41D4B96221A80C7
:1022A00032225A80B4229A80DA801A4ADA601A4AB4
:1022B0009A601A4B4FF4C87119805A245C804B20E5
:1022C00098806E22DA80164DDD60164D9D60164BAB
:1022D00014251D805C809880DA80144ADA60144AE4
:1022E0009A60144B1980F020588046229A80DA8038
:1022F000114CDC60114C9C60114B198058809A8005
:10230000DA80104ADA60104A9A6030BC704700BF29
:1023100034104020851F4000AC5E40004410402037
:10232000991F40000C0F430084104020AD1F400057
:10233000C00E430074104020811F4000300F430046
:1023400054104020831F4000CC0E430070B582B073
:10235000154CA568EB88AA88618820882D680095AF
:10236000124DA84712488668F388B28841880088D1
:1023700036680096A8470F488668F388B288418877
:10238000008836680096A84700200B4B9847A36842
:10239000D988638819442088084A0A310530084BD7
:1023A000984702B070BD00BF341040208D1240002D
:1023B0004410402084104020950E4000C85E40002C
:1023C000DD11400080B5A8B0764B9847764B984712
:1023D00076484FF4F07303604FF4A0734360744B7E
:1023E0008360C360734B9847734B9847734C04AB3F
:1023F00094E8070003C31A8013AD04F10C060FCE56
:102400000FC50FCE0FC533682B6001AB04F130024E
:1024100007CA03C31A700AAD3C340FCC0FC50FCCEA
:102420000FC523682B7000240994654B08934A2636
:102430008DF82460DFF80482CDF81C801320DFF8CB
:102440000092C8475F4D07A928465F4B9847022373
:102450003246294620A85D4DA8472246062120A8DD
:102460005B4DA8470122014620A85A4EB0475A4862
:102470005A4B98472246072120A8A8472022014608
:1024800020A8B0472246072120A8A847411C1022B7
:1024900089B220A8B0472246072120A8A847811C5E
:1024A0004B2289B220A8B0472246072120A8A8477E
:1024B000C11C842289B220A8B0472246082120A846
:1024C000A84704AA014620A8454FB847224609213B
:1024D00020A8A84713AA014620A8B84722462E21C3
:1024E00020A8A84701AA014620A8B84722463821BB
:1024F00020A8A8470AAA014620A8B84722460621D4
:1025000020A8A847811C012289B220A8B047354DD8
:10251000354B1D60354A364B1A60364A364B1A60C9
:102520004FF4E1331393C02314934FF400631593D6
:10253000169417940E20C847424613A928462F4BDD
:10254000984728462E4B984728462E4B98472E4EA4
:102550003368214698682D4DA8473368214658684E
:10256000A8472B482B4B98472B4B98472B4B98470A
:102570001F942B4BADF870302A4BADF872302A4BBC
:10258000ADF87430294BADF87630294B1E93294CA9
:10259000294D20A8A0470028FBD005221CA920A86F
:1025A000A847F6E74D064000B509400064104020FA
:1025B000FCFCFC00210F4000B52140004C5E4000B7
:1025C000801A060000800140191A4000D501400021
:1025D0006D04400025054000D8283200010040204D
:1025E000AD04400000800240301040209D2040009B
:1025F0002C104020C11F400028104020411C4000EA
:10260000951C40009B1C400010004020052D400000
:10261000D80E430095264000992240004D234000EB
:10262000341040204410402084104020741040207A
:10263000541040206D054000DD21400080D1F0089D
:10264000CD17400070B50F4E0F4D761BB61018BF5A
:10265000002405D0013455F8043B9847A642F9D12F
:102660000A4E0B4D761B2EF01DFDB61018BF002430
:1026700006D0013455F8043B9847A642F9D170BD05
:1026800070BD00BFB0104300B0104300B81043004D
:10269000B01043000FB400B5074983B004AB08681D
:1026A00053F8042B8168019300F038FD03B05DF806
:1026B00004EB04B0704700BF10004020024B0146FD
:1026C000186800F003B800BF100040202DE9F04F5B
:1026D00001F10B06162E83B0054640F29E8036F0BF
:1026E000070600F1BD80B14200F2BA8000F0ECFABA
:1026F000B6F5FC7FC0F09382730A00F0B880042B1B
:1027000000F27981B30903F1390003F1380EC300F7
:10271000BF4F3B44A3F108015C68A14206D10CE025
:10272000002A80F2AA80E468A14206D0636823F000
:1027300003039A1B0F2AF3DD70463C69DFF8E4E2DD
:10274000744500F0AB81636823F003039A1B0F2AE2
:1027500000F39081002AC7F814E0C7F810E080F277
:102760009D80B3F5007F80F06181DB0803F1010CEF
:1027700099107A6857F83C80C4F8088001238B4090
:1027800007EBCC0113430839E1607B6047F83C401C
:10279000C8F80C408210012494409C4200F28B80C7
:1027A0001C4206D120F0030064001C4200F104002A
:1027B000FAD007EBC009CC468046DCF80C309C45CB
:1027C00007D16DE1002A80F27B81DB689C4500F037
:1027D0006781596821F003018A1B0F2AF2DDD3F8C3
:1027E0000CC0D3F8088000939C19284646F00106D7
:1027F00042F001055E60C8F80CC0CCF808807C612E
:102800003C61C4F80CE0C4F808E065605A5000F080
:1028100061FA009B03F108041EE0102920D800F0A3
:1028200053FA102618230220794F3B44A3F10802E3
:102830005C68944200F03D816368E168A66823F01B
:102840000303234428465A68F16042F001028E6077
:102850005A6000F03FFA0834204603B0BDE8F08F1C
:1028600000240C2320462B6003B0BDE8F08F4020ED
:102870004FF400734FF03F0E4AE72344E1685A6873
:10288000A66842F00102F16028468E605A6000F0AE
:1028900021FA0834204603B0BDE8F08F23442846CF
:1028A0005A6842F001025A6000F014FA08342046D7
:1028B00003B0BDE8F08FBC68636823F00308B0453F
:1028C00004D3A8EB06030F2B00F38580DFF85891A3
:1028D000504BD9F800201B680132334404EB080A3E
:1028E00000F0558103F580530F3323F47F6B2BF0F9
:1028F0000F0B5946284600F0F3F9411C024600F040
:10290000FC80824500F2F780434B196859441960F6
:1029100000F04D81D9F8000001301BBFA2EB0A0A7C
:102920005144C9F80020196012F0070100F0158128
:10293000C1F10800C1F580510244083102EB0B09D6
:10294000C9F30B09A1EB09094946284601930092F6
:1029500000F0C6F9431C9DE80C0000F04381801A8A
:10296000484440F001001968BA604944BC425060D4
:10297000196017D0B8F10F0F40F2FB806068A8F122
:102980000C0222F0070204EB020E00F001004FF0EF
:10299000050C10430F2A6060CEF804C0CEF808C0C2
:1029A00000F217811D4BBC681A68914288BF1960FC
:1029B0001B4B1A689142626888BF196022F00302BB
:1029C0009642A2EB060301D80F2B04DC284600F048
:1029D00081F9002440E7A21943F0010346F0010603
:1029E00066602846BA60536000F074F908342046E7
:1029F00003B0BDE8F08F142B71D9542B00F2A380E3
:102A0000330B03F16F0003F16E0EC30080E600BFCD
:102A10004004402024104020F40F40201C1040208F
:102A20002010402048044020480840205A0A042A28
:102A30005BD9142A00F2AE8002F15C01C9005B325E
:102A400007EB010C7958ACF1080C8C4500F088803C
:102A50004A6822F00302934273D289688C45F7D109
:102A6000DCF80C207B68E260C4F808C09460CCF805
:102A70000C408FE6A11946F0010C42F00106C4F8A3
:102A800004C0284679613961C1F80CE0C1F808E05A
:102A90004E60E25000F01EF90834DDE67B6879E60E
:102AA00008F1010818F0030F0CF1080C7FF485AE53
:102AB0002DE0DC68A34208BF02303FF43EAEBBE627
:102AC00019441C464A68DB6854F8086F42F001025A
:102AD0004A602846F3609E6000F0FCF8BCE603F113
:102AE0005C0003F15B0EC30012E69A0902F13901A2
:102AF000C9003832A4E7BC4254D0BC68626822F0F6
:102B000003025DE759F80839994540F0868010F0D6
:102B1000030F00F1FF30F5D17B6823EA04037B60EB
:102B200064009C423FF6C7AE002C3FF4C4AE1C428A
:102B300040467FF43EAE64001C4200F10400FAD02F
:102B400037E68C468CE7B3F5AA7F15D8F30B03F173
:102B5000780003F1770EC300DAE54FF48051EDE61B
:102B60007B689210012101FA02F213437B606246F6
:102B700079E70123536029E740F25452934222D867
:102B8000B30C03F17D0003F17C0EC300C0E503F13B
:102B9000100BAEE6542A29D81A0B02F16F01C900B6
:102BA0006E324DE7204B196859441960B2E6CAF3FA
:102BB0000B0000287FF4AEAE08EB0B03BA6843F0BD
:102BC00001035360EEE67F204FF47E734FF07E0EDC
:102BD0009EE504F108012846009301F0BBFB009B31
:102BE0001968DFE601204FF00009BCE6B2F5AA7FC4
:102BF00005D8DA0B02F17801C900773220E740F2FC
:102C000054518A4205D89A0C02F17D01C9007C32E8
:102C100016E74FF47E717E2212E77B6880E7F008AA
:102C200006F1080300E600BFF40F402070B48607E9
:102C300046D0541E002A41D0CAB2034602E014F125
:102C4000FF343BD303F8012B9D07F8D1032C2ED979
:102C5000CDB245EA05250F2C45EA054519D903F102
:102C600010022646103E0F2E42F8105C42F80C5C13
:102C700042F8085C42F8045C02F11002F2D8A4F1B8
:102C8000100222F00F0204F00F041032032C134440
:102C90000DD91E462246043A032A46F8045BFAD8A8
:102CA000221F22F003020432134404F003042CB167
:102CB000C9B21C4403F8011B9C42FBD170BC704795
:102CC00014460346C2E700BF014801F0DDBD00BF66
:102CD000A4104020014801F0D9BD00BFA41040203D
:102CE00038B5074C0023054608462360FFF720F956
:102CF000431C00D038BD2368002BFBD02B6038BDAF
:102D0000B810402000290CBF022200224FF480633B
:102D100000F000B82DE9F043614C256883B004460B
:102D20000F4690461E4615B1AB6B002B64D0B8F130
:102D3000020F06D0B8F1010F00F29F80002EC0F202
:102D40009C80636ED80734D52146284601F084F96B
:102D5000216B41B104F14003994202D0284601F0B1
:102D6000F9FA00232363B4F90C300022A2616260F7
:102D70001A063AD423F44A6323F00303B8F1020F8E
:102D8000A3811DD001AB6A462146284601F080FD93
:102D9000A3891843A081002E32D1009E3046FFF750
:102DA0008DFC074600286BD0A38943F08003A381E4
:102DB00028E0A3899905C7D4A06D01F065FDC3E79C
:102DC0000025616E002604F1430243F00203012056
:102DD000A660CE07A38122602261606101D49805BC
:102DE0003ED5284603B0BDE8F0832169284601F0AE
:102DF000B1FAB4F90C30BDE7284601F085F996E741
:102E0000002FCBD0AB6B002B33D0009BB4F90C2040
:102E100027609E421CBF42F40062A281B8F1010FFC
:102E200004BF42F00102A28192B212F008032761AE
:102E300066610ED0D1071AD5656E7642002315F073
:102E40000105A661A36009D00025284603B0BDE8AE
:102E5000F083A360656E15F00105F5D19305C0D42C
:102E6000A06D01F013FD284603B0BDE8F083A66015
:102E7000F0E7284601F048F9C7E74FF0FF35B0E723
:102E8000DDF80090B14504D04846FFF717FC07462F
:102E900020B9B4F90C304FF0FF3592E74E4683E786
:102EA00010004020830710B5044610D10268A2F13B
:102EB000013323EA020313F0803F08D150F8042FB6
:102EC000A2F1013323EA020313F0803FF6D0037826
:102ED0001BB110F8013F002BFBD100F003F8204696
:102EE00010BD00BF80EA0102844612F0030F4FD1EB
:102EF00011F0030F32D14DF8044D11F0040F51F8C9
:102F0000043B0BD0A3F101329A4312F0803F04BF7F
:102F10004CF8043B51F8043B16D100BF51F8044B68
:102F2000A3F101329A4312F0803FA4F101320BD198
:102F30004CF8043BA24312F0803F04BF51F8043B1D
:102F40004CF8044BEAD023460CF8013B13F0FF0F7A
:102F50004FEA3323F8D15DF8044B704711F0010FAD
:102F600006D011F8012B0CF8012B002A08BF70477E
:102F700011F0020FBFD031F8022B12F0FF0F16BF75
:102F80002CF8022B8CF8002012F47F4FB3D170473D
:102F900011F8012B0CF8012B002AF9D1704700BF62
:102FA0000000000000000000000000000000000021
:102FB0000000000000000000000000000000000011
:102FC00090F800F06DE9024520F007016FF0000C69
:102FD00010F0070491F820F040F049804FF0000411
:102FE0006FF00700D1E9002391F840F000F10800EC
:102FF00082FA4CF2A4FA8CF283FA4CF3A2FA8CF324
:103000004BBBD1E9022382FA4CF200F10800A4FA8A
:103010008CF283FA4CF3A2FA8CF3E3B9D1E90423DE
:1030200082FA4CF200F10800A4FA8CF283FA4CF315
:10303000A2FA8CF37BB9D1E9062301F1200182FACF
:103040004CF200F10800A4FA8CF283FA4CF3A2FAD5
:103050008CF3002BC6D0002A04BF04301A4612BAE3
:10306000B2FA82F2FDE8024500EBD2007047D1E9E6
:10307000002304F00305C4F100004FEAC50514F075
:10308000040F91F840F00CFA05F562EA05021CBF46
:1030900063EA050362464FF00004A9E72DE9F84F03
:1030A0004B6E9C0493462FD59368126853B30E461B
:1030B000074602F1080919E920045FEA9A0817D0C7
:1030C000043D002401E0A04510D0324655F8041F0D
:1030D000384601F0BBF8431C04F10104F3D100238E
:1030E000CBF80830CBF80430BDE8F88FDBF80830B7
:1030F0002AF0030AA3EB0A03CBF8083009F1080908
:10310000002BD8D10020EAE701F00AFA0023CBF81F
:103110000830CBF80430BDE8F88F00BF2DE9F04F40
:10312000ADB01D468B4690460793069018B1836B51
:10313000002B00F0F380DBF86430BBF90C00DF07F4
:1031400081B202D48E0540F1FC808C040AD4DBF8F5
:10315000643040F4005123F40053ABF80C10CBF86A
:10316000643089B2080740F1B380DBF81030002BDF
:1031700000F0AE8001F01A030A2B00F0B5800023A6
:103180000DF170090B93119310930393CDF83C90BC
:10319000CA46CDF810B098F800304446FBB1252B54
:1031A00002D11CE0252B03D014F8013F002BF9D1EC
:1031B000A4EB08059DB1109B119ACAF80080013359
:1031C0002A44072BCAF80450119210937ADD002A82
:1031D00040F0B084039B10922B44CA46039323789B
:1031E000002B00F0E08300204FF000038DF8373013
:1031F00004F1010862780546064603464FF0FF34A5
:1032000008F10108A2F12001582900F2DE82DFE86E
:1032100011F02102DC02DC022902DC02DC02DC0209
:10322000DC02DC02DC0289029502DC02A200BD02A3
:10323000DC029F01A401A401A401A401A401A40132
:10324000A401A401A401DC02DC02DC02DC02DC0239
:10325000DC02DC02DC02DC02DC02B201DC02DC02A9
:10326000DC02DC02DC02DC02DC02DC02DC02DC026E
:103270009701DC02DC02DC02DC02DC029B01DC02E6
:10328000DC025302DC02DC02DC02DC02DC02DC02D7
:10329000DC02DC02DC02DC025A021B02DC02DC0281
:1032A000DC026E021B02DC02DC027302DC02F501AE
:1032B00082010902D702DC029A02DC02A700DC02CA
:1032C000DC022E020AF1080A039B2B44039386E7D3
:1032D0005946069800F0ACFD18BBBBF80C1001F085
:1032E0001A030A2B7FF44BAFBBF90E30002BFFF60D
:1032F00046AFDBF86430DB0705D48F0503D4DBF879
:10330000580001F0C3FA2B4642465946069800F091
:103310004DFD039003982DB0BDE8F08F00F0F4FE52
:1033200009E7DBF86430D90704D4BBF80C309A0500
:1033300040F1AA844FF0FF33039303982DB0BDE80A
:10334000F08FDBF8580001F09FFABBF90C0081B256
:10335000FBE67642079243F0040398F800204FE71B
:1033600008969E0600F150840799DD060A4600F192
:10337000EF83580640F1EC830E88043100270122C8
:1033800007914FF000018DF837100025611C00F007
:10339000168123F08001029156EA070140F0148162
:1033A000002C40F05C83002A40F0B78313F0010347
:1033B000059300F057840DF1B00B30230BF8413D1D
:1033C000059BA342B8BF234601930DB1013301937E
:1033D000029B13F00203099302D0019B0233019375
:1033E000029B13F084030A9340F01782089B019A12
:1033F0009D1A002D40F31182102D40F39084109BF4
:10340000119AC44ED6461027A2461946069C07E0DC
:1034100001F1020C0EF1080E0146103D102D11DDD8
:10342000481C1032072811928EE8C0001090EFDD82
:10343000002A40F0E481103D102D11464FF0010CA0
:10344000CE46EDDC54466146F2462A4407291192E5
:10345000CAF80060CAF80450109100F3EC829DF89D
:1034600037500AF1080A481C002D40F0DE81099B04
:10347000002B00F0F88102320EA9022307281192D6
:1034800010908AE80A0040F3EA81002A40F08C8319
:103490000A9B802B4FF001001146CA4640F0E7819D
:1034A000089B019D5E1B002E40F3E181102E9A4D7A
:1034B00040F35084D4461027A246069C07E001F151
:1034C000020E0CF1080C0146103E102E11DD481CB6
:1034D0001032072811928CE8A0001090EFDD002A2E
:1034E00040F09D82103E102E4FF0010E1146CC464A
:1034F000EDDC5446E2463244BEF1070F11928AE8F1
:103500006000CDF840E000F369830AF1080A0EF18B
:1035100001007146ABE1089613F0200240F08C8365
:1035200013F0100140F01A8313F0400200F01683EC
:1035300007980A460146043106880791002720E7CC
:10354000089643F01003E7E7089643F0100308E7F6
:1035500043F0800398F8002052E6A2F130010026E3
:1035600018F8012B06EB860601EB4606A2F13001A6
:103570000929F5D946E60896002840F0088443F06A
:1035800010039E0600F14C83DD0600F1F38258061D
:1035900040F1F082079DB5F900602A46F717043222
:1035A000304639460792002871F10002C0F25D836F
:1035B000611C9DF837504FF001027FF4EAAE56EAE5
:1035C000070100F04D820293012A00F08C82022A4A
:1035D00040F05C820B98CB46330906F00F0143EABA
:1035E00007733A091E461746435C0BF8013D56EA3D
:1035F0000703F1D1A9EB0B030593E1E6002840F0A6
:10360000C083990600F16783DA0600F1F1805B065A
:1036100040F1EE80079A136804320792BDF80C203F
:103620001A80B8E507983D4A08960B9206687822FA
:10363000302104308DF8392043F002030790002731
:103640008DF8381002229CE60896002899D08DF853
:10365000375096E798F80020002D7FF4D1AD012077
:103660002025CDE543F0010398F80020C8E5089631
:10367000002840F0938329490B919F0600F1E882CE
:103680000798DE06014600F170825D0640F16D820A
:103690000431068807910027D80740F1228256EAB4
:1036A000070100F01E8230218DF8392043F002031B
:1036B0008DF83810022264E60896002840F06B83EB
:1036C00017490B91D9E7079908960A688DF84820A1
:1036D0004FF000000A468DF83700043201200190B7
:1036E000079205900DF1480B0293002470E643F019
:1036F000400398F8002083E598F800206C2A03BF67
:1037000098F8012043F0200308F1010843F010036A
:1037100076E500BF700F4300800F4300540F430055
:10372000400F430007990E680A46002E02F104027A
:10373000FFF60FAE079298F8002061E598F8002098
:1037400001202B255CE507990896D1F800B04FF0D1
:1037500000028DF837200E1DBBF1000F00F0E5824E
:10376000671C00F0C482224600215846019301F0F4
:103770001FF9019B002800F0E582A0EB0B020592E7
:10378000079602939DF83750002419E698F8002018
:103790002A2A08F1010700F0E982A2F13001092983
:1037A000B8464FF000043FF62DAD18F8012B04EB9E
:1037B000840401EB4404A2F130010929F5D921E583
:1037C00043F0200398F800201AE50896002840F0FE
:1037D000DB82002A00F0E78001218DF848204FF0BD
:1037E000000201918DF8372005910DF1480B7BE720
:1037F000079A136804320792039A1A60CBE40FAA5F
:1038000004992046FFF74AFC002840F039811099BE
:10381000119A01F1010CCE46FFE51099119A481C4E
:103820009DF83750002D3FF422AE01320DF13705DF
:103830000121072811921090CAF80050CAF804100C
:1038400040F30881002A40F0BC81099B002B3FF423
:103850001FAE0EAB022208461C931D92CA460146BB
:103860000AF1080A01300A9B802B3FF419AE059B30
:10387000E41A002C2EDD102CB34D1EDDD64610268A
:10388000069FDDF810A006E0881C0EF1080E194610
:10389000103C102C10DD4B1C1032072B11928EE8BF
:1038A00060001093F0DD002A65D1103C102C4FF021
:1038B00001001146CE46EEDCF24622440728119262
:1038C000CAF80050CAF80440109000F385800AF14D
:1038D000080A01300599CAF800B00A440728119275
:1038E000CAF80410109040F38280002A40F018813A
:1038F000029B1092580735D5089B01995C1A002C41
:1039000040F3E780CA46102C40F3188210998F4E7E
:10391000069FDDF810B0102506E0881C0AF1080AA1
:103920001946103C102C11DD4B1C1032072B119244
:10393000CAF80060CAF804501093EEDD42BB103C98
:10394000102C4FF001001146CA46EDDC2244072836
:103950001192CAF80060CAF80440109051DD002AA4
:1039600040F09B81039B089A01998A42ACBF9B1847
:103970005B1803934EE00FAA51463846FFF78EFBC3
:10398000002840F03F811099119A481CCE467FE7ED
:103990000FAA59463846FFF781FB60B91099119A72
:1039A000481CCA46BDE7119BDDF810B0002B40F063
:1039B000D48100231093DBF8643013F0010FBBF8BF
:1039C0000C3002D19A0540F1DE805B063FF5B2ACC7
:1039D00003982DB0BDE8F08F002A40F00681059ACB
:1039E0001D9201231192CDF870B01093CA460AF1CE
:1039F000080A029B590704D5089B01995C1A002C00
:103A000081DC039B089901988142ACBF5B181B18AD
:103A1000039372BB00231093CA46FFF7BCBB0FAAE7
:103A200004992046FFF73AFB50BB1099119A01F117
:103A3000010ECC4648E5002A40F040819DF8371041
:103A4000002900F01B8101220DF1370110461D9263
:103A50001C91CA4601460AF1080A013007E5029B9B
:103A6000012A00F09880022A0DD102930026002737
:103A7000B0E50FAA04990698FFF710FB0028C9D0FB
:103A8000DDF810B097E7029300260027494600E0D2
:103A90005946F20842EA4772F80806F0070307465B
:103AA0001646303356EA070201F8013C01F1FF3BAC
:103AB000EED1029AD6077FF59DAD302B3FF49AAD3B
:103AC000023930230BF8013CA9EB010305938B4627
:103AD00076E4039B089A8A42ACBF9B185B18039359
:103AE00098E702224DE4002F08BF0A2E52D3CB469E
:103AF000304639460A22002301F060FC30320BF8D0
:103B0000012D3046394600230A2201F057FC0646B3
:103B10000F4656EA0703EBD16CE50594CB464FE41C
:103B20000FAA04990698FFF7B9FA0028A8D1119AAC
:103B3000CA465EE70FAA04990698FFF7AFFA002875
:103B40009ED1CA46FFF7C0BB800F4300700F4300F1
:103B50000431166807910122002712E407980146F4
:103B600004310668079100270BE40E6804310791C1
:103B7000002791E507990E680A46F7170432079265
:103B8000304639460FE5DBF8580000F07FFEBBF801
:103B90000C301AE7029B02930DF1B00B3036012373
:103BA0000BF8416D05930BE40FAA04990698FFF7F3
:103BB00075FA00287FF464AF1099119A481CCA4620
:103BC00051E60FAA04990698FFF768FA00287FF4D7
:103BD00057AF1099119A481CCA4648E4002A40F091
:103BE000918001201146CA4641E60FAA0499069821
:103BF000FFF754FA00287FF443AF1098119A013070
:103C0000CA4667E6D346D6E6079E073626F0070281
:103C100002F10801D2E9006707910122FFF7B1BB69
:103C2000079E073626F00706D6E9000106F10802CE
:103C3000079206460F46B6E4079E073626F00702AF
:103C400002F10801D2E9006707910022FFF799BB52
:103C5000079E073626F0070101F108000790D1E919
:103C6000006719E5CB46FFF7ABBB2D25764267EB26
:103C700047078DF837500122FFF788BB099BB3B97E
:103C800011460120CA46F2E5DBF8580000F0FEFDBF
:103C90004FF0FF330393FFF750BB0FAA0499069828
:103CA000FFF7FCF900287FF4EBAE119AA9E60EAB02
:103CB00002221C931D920120CA46D0E50FAA049946
:103CC0000698FFF7EBF900287FF4DAAE1099119A05
:103CD000481CCA46A4E5079A03991368CD170846FD
:103CE000043229460792C3E90001FFF754BA584647
:103CF00007960293FFF764F9002405909DF837506A
:103D0000FFF75EBB0FAA04990698FFF7C7F90028D2
:103D10007FF4B6AE1099119A481CCA46A7E51099CF
:103D2000119A204E0131FFF790BB062C28BF0624C4
:103D3000059407960194DFF870B0D5E41098194EF9
:103D4000013003E605949DF8375007960293044628
:103D5000FFF736BB8646FFF7CEBB06980FAA59463B
:103D6000FFF79CF900283FF424AE24E6079998F861
:103D700001200C68043144EAE474B8460791FFF767
:103D80003FBA8DF837503CE48DF8375021E58DF877
:103D90003750FFF7F4BB8DF8375091E48DF837506A
:103DA00069E400BF700F4300680F43002DE9F04144
:103DB0000C46ADF58D6D8989666EE589199621F001
:103DC00002010646E069ADF80C1017464FF4806119
:103DD000626AADF80E5098461AAD0023079016A8F7
:103DE00009920693009504950291059100F048FD13
:103DF00043463A4669463046FFF790F9051E07DB11
:103E00003046694600F028F9002818BF4FF0FF350A
:103E1000BDF80C305B0603D5A38943F04003A381B2
:103E2000169800F02FFD28460DF58D6DBDE8F08148
:103E300038B5304B1B6805460C4613B19A6B002A07
:103E400038D0B4F90C2093B218070CD52069A8B16A
:103E500013F001021ED0636900225B42A361A260DD
:103E6000F0B1002038BDD9063CD5580726D42069CA
:103E700042F00803A3819BB20028E9D103F4207229
:103E8000B2F5007FE4D02846214600F02FFDA3893B
:103E90002069DDE7990758BF6269A2600028E0D178
:103EA000B4F90C301A06DDD543F04003A3814FF07E
:103EB000FF3038BD184600F027F9C2E7216B51B139
:103EC00004F14003994204D0284600F043FAB4F9C3
:103ED0000C200023236300232069636022F0240266
:103EE0002060C5E742F0400209232B604FF0FF300D
:103EF000A28138BD10004020024B13B1024800F0EF
:103F000005B87047000000007941400000230146D9
:103F10001A46184601F02AB9B1F90C309AB22DE9C7
:103F2000F0410D46110780463AD46A6843F40063B5
:103F3000002AAB816FDDAC6A002C49D000229BB215
:103F4000D8F80060C8F8002013F4805267D02A6DBA
:103F50005F0705D569682B6B521A0BB1EB6BD21A50
:103F60000023E9694046A047441C3CD0B5F90C3019
:103F70002A692A6023F400630022AB81DB046A60B3
:103F800047D4296BC8F8006011B305F1400399428A
:103F900002D0404600F0DEF900202863BDE8F08141
:103FA0002E69AEB12C682E6091070CBF6B6900239F
:103FB000A41BAB600AE0234632466F6AE9694046BB
:103FC000B8470028A4EB0004064404DD002CF2DC12
:103FD0000020BDE8F081AB8943F04003AB814FF096
:103FE000FF30BDE8F081D8F800401D2CF3D8194B04
:103FF000E340DB4313F00103EDD1B5F90C206B6016
:1040000022F400632969AB81DA042960B9D5002C58
:10401000B7D12865B5E7EA6B002A8CDCD8E7012325
:10402000E9694046A047431C024602D0AB89AC6A0E
:104030008EE7D8F80030002BF8D01D2B01D0162BBE
:1040400002D1C8F80060C3E7AB8943F04003AB81FD
:10405000BDE8F0810100402038B50D46044608B1A6
:10406000836BBBB1B5F90C0088B16B6EDB0701D473
:10407000810517D520462946FFF74EFF6B6EDA07FC
:10408000044602D4AB899B0507D5204638BD0446BB
:10409000204638BD00F038F8E4E7A86D00F0F6FBE4
:1040A000204638BDA86D00F0EFFBE3E7014900F0C2
:1040B000AFBB00BF5552400010B5002304468181BC
:1040C000C28103604360836043660361436183612F
:1040D000194608225C30FEF7A9FD07480749084A3F
:1040E000084B2062E4616162A262E36204F158005D
:1040F000BDE8104000F0C4BB994F4000BD4F4000E8
:10410000F94F40001950400010B50446124800F025
:10411000BBFBA26BD2B904F53B731048C4F8E8327C
:104120000321C4F8E022E063C4F8E41260680421CB
:10413000FFF7C2FF01220921A068FFF7BDFF02229D
:104140001221E068FFF7B8FF0123A3630248BDE82E
:10415000104000F09BBB00BFA0104020AD404000CD
:10416000014800F091BB00BFB4104020014800F0AE
:104170008DBB00BFB410402038B50A4C0A4D641BFB
:10418000A4100AD004F18043013B05EB8305013CF8
:1041900055F804399847002CF9D1BDE838402CF087
:1041A0008BBF00BFC8104300C41043002DE9F04787
:1041B00082B080468946144600F054FB012836D070
:1041C0004A4604F15C0301A9404600F081FF421C0D
:1041D000064625D0A8B39DF804E000250DF1040A99
:1041E00009E023685A1C226083F800E00135B542DB
:1041F00027D215F80AE0A368013B002BA360F0DA90
:10420000A769BB4271462246404602DBBEF10A0F57
:10421000E7D100F005FF431CE8D102B0BDE8F0870C
:10422000A38943F04003A38102B0BDE8F08709F100
:10423000FF33FE2BC4D85FFA89FE06468DF804E0F2
:10424000CBE7484602B0BDE8F08700BF30B5536EFB
:1042500013F0010FB2F90C30144683B005469AB240
:1042600001D190051CD5900406D4626E43F400532E
:1042700042F40052A381626628462246FFF796FF69
:10428000636EDA07054602D4A3899B0502D528464A
:1042900003B030BDA06D00F0F9FA284603B030BD80
:1042A000A06D019100F0F0FAB4F90C3001999AB2C6
:1042B000D9E700BFF8B5244F0C460646FEF704FDCB
:1042C000BB685D68C4F57E610F3125F003052944A4
:1042D00021F47F6121F00F01A1F58054B4F5805FD6
:1042E00007DB00213046FEF7FBFCBB682B449842FD
:1042F00004D03046FEF7EEFC0020F8BD61423046A7
:10430000FEF7EEFC01300DD0104BBA6819682D1B7A
:1043100045F001053046091B55601960FEF7DAFCCF
:104320000120F8BD00213046FEF7DAFCBA68831A96
:104330000F2BDEDD064C0549246843F00103001B0A
:1043400053600860D5E700BF40044020F40F4020D0
:1043500048084020002944D02DE9F0410D46804610
:10436000FEF7B2FC55F8047C694927F00103A5F17A
:104370000804E2188E685068B24220F003005ED054
:10438000FE0750600BD455F8087CE41B01F1080EC1
:10439000A56875453B446DD0E768EF60BD601518B2
:1043A0006D68ED073ED543F001026260E350B3F55E
:1043B000007F17D2DB08581C9A104D6851F83070F6
:1043C000A7600123934001EBC0022B43083AE2604F
:1043D0004B6041F83040FC604046BDE8F041FEF7DC
:1043E00079BC70475A0A042A52D89A0902F139074F
:1043F000FF0002F13805C819CA59083890424FD059
:10440000516821F003018B4232D292689042F7D179
:10441000C368A060E3609C60C4604046BDE8F041B2
:10442000FEF758BC95683B4FBD42034440D0D0686E
:10443000E86043F0010285606260E350B7E7FF0780
:10444000034407D455F8082CA41A1344A068E26862
:10445000C2609060304A126843F00100934260608D
:104460008C60B9D32D4B40461968FFF723FFB3E7A3
:104470001046CDE711184968C90744D49168D2683D
:10448000CA60034443F0010091606060E350A3E719
:10449000142A16D802F15C07FF0002F15B05AAE7B7
:1044A000AA1001234D6893402B434B600346B0E7AD
:1044B00043F001024C610C61E560A5606260E3506D
:1044C0008AE7542A06D81A0B02F16F07FF0002F19F
:1044D0006E0590E7B2F5AA7F06D8DA0B02F17807ED
:1044E000FF0002F1770586E740F25450824206D879
:1044F0009A0C02F17D07FF0002F17C057BE74FF487
:104500007E777E2577E743F001016160136063E702
:1045100040044020480440204C0840202410402003
:104520009368002B73D02DE9F04F8B8983B00C4634
:1045300019070090164626D5226922B313F002000F
:1045400035682CD04FF00009B04FC846B246B84588
:1045500043464A4628BF3B460098B8F1000F50D06A
:10456000E169666AB047002858DDDAF808301B1A9E
:104570008144A8EB0008CAF80830002BE7D10020DE
:1045800003B0BDE8F08F21460098FFF751FC0028EA
:1045900040F03381A389356813F00200D2D113F0C3
:1045A000010945D14F46019637B39A05D4F80880E2
:1045B00040F183804745C346C0F0AB8013F4906F51
:1045C00040F0AC802068BA465A46494600F0DAFA14
:1045D000A2682368A2EB08025B44A2602360019AF0
:1045E0009368A3EB0A03D144A7EB0A079360002B5F
:1045F000C5D0A389002FD8D1D5F800906F680835B1
:10460000D2E7D5F80090D5F8048008359FE7002060
:10461000704721460098FFF71FFD70B3B4F90C30C6
:1046200043F040034FF0FF30A38103B0BDE8F08FAB
:10463000814633464E46A8469A464D464EB380B311
:10464000206823696269B145CB4628BFB3469842CA
:104650005F4604D9A36813449B4500F3A6809345A5
:104660004BDB1346676AE16900982A46B847071E84
:10467000D4DDB9EB0709CCD00120DAF80830DB1B18
:104680003D44F61BCAF80830002B3FF478AF002EEB
:10469000D5D108F1080313E9600098460833002ECD
:1046A000F9D032460A21284600F082F9002800F0AD
:1046B000A1800130A0EB0509C2E720682369984278
:1046C00002D863699F425DD2B84528BFB8464246CA
:1046D000494600F057FAA3682268A3EB0803424456
:1046E000A36022600BB1C24679E721460098FFF72C
:1046F000B3FC002892D1C24671E75A46294600F021
:1047000041FAA2682368A2EB0B025B44A26023601B
:10471000AFE72068B846BA46BB4655E762692068ED
:10472000216902EB4208A0EB010A08EBD8780AF1F4
:1047300001004FEA680838444045424684BF80463D
:1047400042465B0544D511460098FDF7BFFF8346FE
:10475000002855D05246216900F07AF9A38923F444
:10476000906343F08003A3810BEB0A00A8EB0A03DC
:10477000C4F810B0C4F814802060A360B846BA46EC
:10478000BB4621E76FF00041B94228BF39464A468F
:1047900091FBF3F10098666A03FB01F3E169B0470E
:1047A000B0F1000A3FF71BAF38E71A4629460193DC
:1047B00000F0E8F92268019B00981A442260214623
:1047C000FFF74AFC019B00287FF428AF1F4650E703
:1047D000009800F03BFA83460028C5D1009D21696E
:1047E0002846FFF7B7FDB4F90C300C2223F0800304
:1047F0002A6015E706F1010922E74FF0FF30BFE616
:10480000009A0C231360B4F90C3009E700FCFF7F19
:104810002DE9F84310F538771FD0884606464FF04B
:1048200000097D68BC68013D11D4A389012B05F105
:10483000FF3508D9B4F90E3001332146304602D095
:10484000C04749EA00096B1C04F16804EDD13F68D8
:10485000002FE6D14846BDE8F883B9464846BDE892
:10486000F88300BF044B054A1B685B6B002B08BF35
:10487000134693F828017047100040205408402048
:10488000704700BF704700BF704700BF704700BF50
:1048900070B50C46B1F90E10002990B015461E46B1
:1048A00014DB01AA00F038FD00280FDB029A02F4A5
:1048B0007042A2F50052B2FA82F252094FF48063BC
:1048C0004FF4006032602B6010B070BDA2890023ED
:1048D00012F08000336004D0402218462A6010B0E5
:1048E00070BD4FF480632B6010B070BD8A89920751
:1048F0000B4606D501F1430201211A601A61596184
:104900007047F0B583B001AB6A460C460646FFF728
:10491000BFFF009905463046FDF7D8FEB4F90C30CC
:10492000D8B1019A154F0099F76343F08003A38132
:104930002060206161611AB92B43A38103B0F0BDEF
:104940003046B4F90E1000F0FBFCA0B1A38923F0AF
:10495000030343F001031BB2EEE79A05EED423F004
:10496000030304F1430243F002030121A381226007
:1049700022616161E2E7B4F90C30DDE7AD4040004F
:1049800082B049B15AB16BB113780B601278101C28
:1049900018BF012002B0704701A9002AF3D11046C8
:1049A00002B070476FF00100F4E700BF00000000A4
:1049B00001F0FF01102A2BDB10F0070F08D010F8D0
:1049C000013B013A8B422DD010F0070F42B3F6D1D4
:1049D000F0B441EA012141EA014122F007047FF0ED
:1049E00000070023F0E80256083C85EA010586EA44
:1049F000010685FA47F5A3FA87F586FA47F6A5FA80
:104A000087F68EB9EED1F0BC01F0FF0102F007028B
:104A100032B110F8013B013A83EA010313B1F8D136
:104A20000020704701387047002D06BF3546033817
:104A3000073815F0010F07D1013015F4807F02BF50
:104A4000013015F4C03F0130F0BC0138704700BFA1
:104A5000844641EA000313F003036DD1403A41D389
:104A600051F8043B40F8043B51F8043B40F8043B48
:104A700051F8043B40F8043B51F8043B40F8043B38
:104A800051F8043B40F8043B51F8043B40F8043B28
:104A900051F8043B40F8043B51F8043B40F8043B18
:104AA00051F8043B40F8043B51F8043B40F8043B08
:104AB00051F8043B40F8043B51F8043B40F8043BF8
:104AC00051F8043B40F8043B51F8043B40F8043BE8
:104AD00051F8043B40F8043B51F8043B40F8043BD8
:104AE000403ABDD2303211D351F8043B40F8043B78
:104AF00051F8043B40F8043B51F8043B40F8043BB8
:104B000051F8043B40F8043B103AEDD20C3205D387
:104B100051F8043B40F8043B043AF9D2043208D07F
:104B2000D2071CBF11F8013B00F8013B01D30B88F1
:104B300003806046704700BF082A13D38B078DD0CF
:104B400010F003038AD0C3F10403D21ADB071CBFA1
:104B500011F8013B00F8013B80D331F8023B20F80B
:104B6000023B7BE7043AD9D3013A11F8013B00F844
:104B7000013BF9D20B7803704B7843708B788370CC
:104B8000604670478842F0B50DD98B1898420AD21A
:104B90008418002A51D0224613F8014D02F8014D25
:104BA0009942F9D1F0BD0F2A48D941EA00039B0789
:104BB00046D100F1100401F11003154653F8106CB2
:104BC00044F8106C53F80C6C44F80C6C53F8086CF7
:104BD00044F8086C103D53F8046C44F8046C0F2D35
:104BE00003F1100304F11004E8D8A2F1100323F03C
:104BF0000F0302F00F0E1033BEF1030F19440344EC
:104C000021D91E1F0D467446043C55F8047B46F816
:104C1000047F032CF8D8AEF1040424F00304043418
:104C20002144234402F0030262B1013B0A4411F81B
:104C3000014B03F8014F8A42F9D1F0BD0346F3E777
:104C40000346F2E7F0BD7246EEE700BF002900F030
:104C500095802DE9F04F0D46164683B0804606F14B
:104C60000B07FEF731F855F804EC162F2EF003046D
:104C7000A5F108093CD810221746BE423DD89442FF
:104C800043DAC44B996809EB0400884200F0B48011
:104C9000436823F0010101444968C9074CD51EF05F
:104CA000010F00F09B8031464046FDF70FFD0646A0
:104CB00000283AD055F8043C23F001034B44A0F1FE
:104CC00008029A4200F02181221F242A00F2078163
:104CD000132A00F2DB8003462A46116819605168E6
:104CE000596092689A6029464046FFF733FB1CE002
:104CF00027F00707002F3A46BFDA00260C2330467C
:104D0000C8F8003003B0BDE8F08F2E46E31B0F2B30
:104D10001ED8D9F8043003F0010323434C44C9F8EA
:104D20000430636843F0010363604046FDF7D2FF3F
:104D3000304603B0BDE8F08F23F00303E118914241
:104D40001FDBC36882682E46D3600C469A60DDE79D
:104D5000D9F8042009EB070102F001024C4443F0AA
:104D600001031743C9F804704B60636843F0010303
:104D7000083163604046FFF7EDFAD6E71146FDF7CC
:104D8000A5BC1EF0010F8ED155F8081CA9EB010A35
:104D9000DAF8041021F003010B442344934225DB8D
:104DA000C26881685646CA609160DAF80C1056F8FD
:104DB000080F221F242AC160886000F29480132A01
:104DC0006FD92968CAF808106968CAF80C101B2A3C
:104DD00000F2A28008350AF1100263E055F8083CA1
:104DE000A9EB030ADAF8041021F0030163189342D7
:104DF000FFF659AF5646D8E7416821F0030BA344AC
:104E000007F11000834556DA1EF0010F7FF44BAF17
:104E100055F8081CA9EB010ADAF8041021F0030187
:104E20008B445845E2DC5646DAF80C1056F8080F69
:104E3000221F242AC160886000F28F80132A40F26A
:104E40008A802968CAF808106968CAF80C101B2AF9
:104E500000F28A8008350AF1100229681160696839
:104E60005160A96891600AEB0701ABEB070242F0C1
:104E7000010299604A60DAF8043003F001031F432D
:104E80004046CAF80470FDF725FF51E72B68036020
:104E90006B6843601B2A2DD800F1080305F1080256
:104EA0001BE732462968116069685160A968916002
:104EB0001C46D1462AE709EB0701ABEB070B4BF089
:104EC000010299604A6055F8043C03F001031F4356
:104ED000404645F8047CFDF7FDFE2E4628E72946AE
:104EE000FFF750FEFFE6294630461C46D146FFF745
:104EF00049FE0BE7AB688360EB68C360242A17D0D8
:104F000000F1100305F11002E7E650F8043C23F02D
:104F100003031C442E46F9E6A968CAF81010E96894
:104F2000CAF81410242A0CD010350AF11802B9E777
:104F30002B6903616B69436105F1180200F11803E5
:104F4000CBE62A69CAF818206A69CAF81C20183505
:104F50000AF12002A6E732467FE729463046019350
:104F6000FFF710FE019B7EE7A968CAF81010E968F8
:104F7000CAF81410242A03D010350AF118026CE77D
:104F80002A69CAF818206A69CAF81C2018350AF17B
:104F9000200262E74004402010B50C46B1F90E1023
:104FA00000F0F6F9002803DB236D0344236510BDF0
:104FB000A38923F48053A38110BD00BF2DE9F041E4
:104FC0001646B1F90C201F46D3050C46054607D5F9
:104FD00000220223B1F90E1000F0C4F9B4F90C203C
:104FE000B4F90E1022F48052A2813B463246284684
:104FF000BDE8F04100F0A4B810B50C46B1F90E10B0
:1050000000F0B0F9A389421C0EBF23F4805343F48F
:1050100080532065A38110BDB1F90E1000F008B9CE
:10502000F8B50D461446064610B1836B002B4BD0E5
:10503000B4F90C20A369A36091B2080739D523699C
:10504000002B36D0EDB289042F4615D52268616950
:10505000D31A8B421CDA0133A168501C0139A160BC
:105060002060157062699A421AD0A389DB0701D5C6
:105070000A2D15D03846F8BD616E42F4005221F475
:105080000051A281226861666169D31A8B42E2DB1A
:1050900021463046FEF7E0FF40B922680123DBE7F6
:1050A00021463046FEF7D8FF0028E3D04FF0FF3707
:1050B000E0E721463046FEF7BBFE0028F6D1B4F902
:1050C0000C20236991B2BDE7FFF71EF8B0E700BFDF
:1050D000F0B5064685B01F4689B1104C104D2468C6
:1050E000646B002C08BF2C46D4F8E040A047431C5A
:1050F00003D100228A233A60336005B0F0BD0C462C
:105100000649074A0968496B002908BF114622462B
:10511000D1F8E04001A9A047E9E700BF1000402016
:105120005408402021B1FF2A04D80A70012070479A
:10513000084670478A2303604FF0FF30704700BF76
:1051400070B50D46084C114606461A4628460023FF
:105150002360FBF707FC431C00D070BD2368002BC5
:10516000FBD0336070BD00BFB81040202DE9F8437C
:105170002C4D0646286898460F469146FFF784FB5B
:10518000294B1C68D4F84831002B3ED05A681F2A9E
:105190001CDC02F1010E76B103EB82010124C1F89F
:1051A0008890D3F8880194402043022EC3F88801E8
:1051B000C1F8088123D00232C3F804E0286843F81C
:1051C0002270FFF763FB0020BDE8F883174B0BB399
:1051D0004FF4C870FDF772FA0346D8B1D4F84821ED
:1051E0000260002141600A46C4F848014FF0010EF8
:1051F000C0F88811C0F88C11002EDCD0CCE7D3F8B1
:105200008C110C43C3F88C41D5E704F5A673C4F8A0
:105210004831BBE72868FFF739FB4FF0FF30BDE8A6
:10522000F88300BF500840203C0F4300BD264000DB
:1052300038B5074C0023054608462360FCF794FE6A
:10524000431C00D038BD2368002BFBD02B6038BD39
:10525000B810402070B559B105460C4610B1836BAB
:10526000002B3CD0636ED80705D5B4F90C302BB9B0
:105270000026304670BDA38999053CD521462846B5
:10528000FEF74AFEE36A064633B1E16928469847CD
:105290000028B8BF4FF0FF36A3891A0622D4216B2D
:1052A00041B104F14003994202D02846FFF752F879
:1052B00000232363616C21B12846FFF74BF80023DC
:1052C0006364FEF74DFF636E0022DB07A2810ED5FB
:1052D000A06DFFF7D7FAFEF749FF304670BDFEF725
:1052E00013FFBFE721692846FFF734F8D7E7A06D21
:1052F000FFF7CCFAECE7A06DFFF7C6FAB4F90C3073
:10530000002BBBD1666E16F00106B1D1A06DFFF780
:10531000BDFA304670BD00BF38B50B46074C054698
:105320001146184600232360FCF721FE431C00D0E1
:1053300038BD2368002BFBD02B6038BDB81040204F
:1053400038B5074C0023054608462360FCF714FED9
:10535000431C00D038BD2368002BFBD02B6038BD28
:10536000B810402070B50D46084C114606461A4646
:10537000284600232360FCF701FE431C00D070BDCB
:105380002368002BFBD0336070BD00BFB8104020F5
:1053900070B50D46084C114606461A4628460023AD
:1053A0002360FBF7C1FA431C00D070BD2368002BBB
:1053B000FBD0336070BD00BFB810402053B94AB96C
:1053C000002908BF00281CBF4FF0FF314FF0FF300D
:1053D00000F07AB9ADF1080C6DE904CE00F006F8E2
:1053E000DDF804E0DDE9022304B070472DE9F04761
:1053F0008C460D460446089E002B51D18A42174622
:105400006DD9B2FA82FEBEF1000F0BD0CEF1200CA6
:1054100001FA0EF520FA0CFC02FA0EF74CEA050C24
:1054200000FA0EF44FEA174A250CBCFBFAF81FFAF3
:1054300087F90AFB18CC45EA0C4508FB09F3AB4297
:105440000AD9ED1908F1FF3280F02381AB4240F216
:105450002081A8F102083D44ED1AA4B2B5FBFAF090
:105460000AFB105544EA054400FB09F9A14509D996
:10547000E41900F1FF3380F00A81A14540F2078171
:1054800002383C44A4EB090440EA08400021002E05
:1054900061D024FA0EF4002334607360BDE8F08715
:1054A0008B4207D9002E54D0002186E821000846FF
:1054B000BDE8F087B3FA83F1002940F08E80AB425B
:1054C00002D3824200F2FA80841A65EB03050120C0
:1054D000AC46002E3FD086E81010BDE8F08712B928
:1054E0000127B7FBF2F7B7FA87FEBEF1000F34D100
:1054F000EB1B3A0C1FFA87FC0121B3FBF2F8250CD9
:1055000002FB183345EA03450CFB08F3AB4207D90D
:10551000ED1908F1FF3002D2AB4200F2D180804693
:10552000ED1AA3B2B5FBF2F002FB105543EA0544B5
:105530000CFB00FCA44507D9E41900F1FF3302D2AB
:10554000A44500F2B8801846A4EB0C0440EA0840D9
:105550009DE731463046BDE8F087CEF1200405FADC
:105560000EF307FA0EF720FA04F83A0C25FA04F4C1
:1055700048EA0308B4FBF2F14FEA184502FB114474
:105580001FFA87FC45EA044501FB0CF3AB4200FA25
:105590000EF409D9ED1901F1FF3080F08A80AB4299
:1055A00040F2878002393D44EB1A1FFA88F5B3FBBD
:1055B000F2F002FB103345EA034500FB0CF3AB426B
:1055C00007D9ED1900F1FF386FD2AB426DD902381F
:1055D0003D44EB1A40EA01418FE7C1F1200722FA6E
:1055E00007F88B4005FA01F448EA030320FA07FEA6
:1055F0004FEA134CFD404EEA040EB5FBFCF94FEAAE
:105600001E440CFB19551FFA83F844EA054509FBB3
:1056100008F4AC4202FA01F200FA01FA08D9ED18D6
:1056200009F1FF3043D2AC4241D9A9F102091D442E
:105630002D1B1FFA8EFEB5FBFCF00CFB10554EEA3D
:10564000054400FB08F8A04507D9E41800F1FF3530
:1056500029D2A04527D902381C4440EA0940A4EBCE
:105660000804A0FB02894C45C6464D4615D312D00E
:1056700056B1BAEB0E0364EB050404FA07F7CB400E
:105680001F43CC40376074600021BDE8F0871846A6
:10569000F8E69046E0E6C245EAD2B8EB020E69EBC6
:1056A00003050138E4E72846D7E7404691E78146FD
:1056B000BEE7014678E702383C4445E7084608E77C
:1056C000A8F102083D442BE7704700BF000000002E
:1056D00000000000000000000000000000000000CA
:1056E0000000000000000000FFCCFFCC0000000024
:1056F0000000000000000000F000F00000000000CA
:10570000F000F000000000000CC00CC0FFFCFFFC2B
:105710000CC00CC0FFFCFFFC0CC00CC00C601E7069
:105720003F303330FFFCFFFC333033F039E018C03A
:105730006000F00CF03C60F003C00F003C18F03C3F
:10574000C03C00183CF07FF8C31CC78CCFCCDCEC0D
:105750007878303000FC00CC0000000000004400ED
:10576000EC00F800700000000000000000000000E5
:105770000FC03FF078786018C00CC00C000000002B
:1057800000000000C00CC00C601878783FF00FC01B
:10579000000000000C600EE007C003803FF83FF8F7
:1057A000038007C00EE00C60030003000300030049
:1057B0003FF03FF00300030003000300004400EC4F
:1057C00000F8007000000000000000000000000071
:1057D00003000300030003000300030003000300B1
:1057E000030003000018003C003C0018000000000B
:1057F00000000000000000000000000C003C00F071
:1058000003C00F003C00F000C00000003FF07FF834
:10581000E0FCC1CCC38CC70CCE0CFC1C7FF83FF065
:1058200000000000300C700CFFFCFFFC000C000CB2
:1058300000000000300C701CE03CC07CC0ECC1CC0F
:10584000C38CE70C7E0C3C0C30307038E01CC00C74
:10585000C00CC30CC30CE31C7FF83CF003C007C0B2
:105860000EC01CC038C070C0FFFCFFFC00C000C0F0
:10587000FC30FC38CC1CCC0CCC0CCC0CCC0CCE1C96
:10588000C7F8C3F03FF07FF8E31CC30CC30CC30C94
:10589000C30CE39C71F830F0C000C000C000C00031
:1058A000C3FCC7FCCE00DC00F800F0003CF07FF841
:1058B000E79CC30CC30CC30CC30CE79C7FF83CF003
:1058C0003C007E00E70CC30CC31CC338C370E7E088
:1058D0007FC03F8000000000000018603CF03CF0FA
:1058E00018600000000000000000000000001844E4
:1058F0003CEC3CF8187000000000000000000300C1
:1059000007800FC01CE038707038E01CC00C00002D
:105910000CC00CC00CC00CC00CC00CC00CC00CC027
:105920000CC00CC00000C00CE01C703838701CE0CB
:105930000FC007800300000030007000E000C000CE
:10594000C1ECC3ECC300E6007E003C0030F071F80F
:10595000E39CC30CC3FCC3FCC00CE01C7FF83FF00D
:105960003FFC7FFCE0C0C0C0C0C0C0C0C0C0E0C041
:105970007FFC3FFCFFFCFFFCC30CC30CC30CC30C3F
:10598000C30CE79C7FF83CF03FF07FF8E01CC00CB4
:10599000C00CC00CC00CE01C70383030FFFCFFFCA9
:1059A000C00CC00CC00CC00CC00CE01C7FF83FF059
:1059B000FFFCFFFCC30CC30CC30CC30CC30CC30C17
:1059C000C00CC00CFFFCFFFCC300C300C300C3003D
:1059D000C300C300C000C0003FF07FF8E01CC00C53
:1059E000C00CC30CC30CE31C73F833F0FFFCFFFCCA
:1059F000030003000300030003000300FFFCFFFC9F
:105A000000000000C00CC00CFFFCFFFCC00CC00C70
:105A10000000000000300038C01CC00CC00CC01CCE
:105A2000FFF8FFF0C000C000FFFCFFFC078007800C
:105A30000FC01CE038707038E01CC00CFFFCFFFC8D
:105A4000000C000C000C000C000C000C000C000CF6
:105A5000FFFCFFFC700038001F001F0038007000C2
:105A6000FFFCFFFCFFFCFFFC1C000E000700038096
:105A700001C000E0FFFCFFFC3FF07FF8E01CC00C21
:105A8000C00CC00CC00CE01C7FF83FF0FFFCFFFC1A
:105A9000C300C300C300C300C300E7007E003C0096
:105AA0003FF07FF8E01CC00CC0CCC0ECC07CE038FC
:105AB0007FFC3FECFFFCFFFCC300C380C380C3C07E
:105AC000C3C0E7707E3C3C1C3C187E1CE70CC30C3A
:105AD000C30CC30CC30CC39CE1F860F0C000C00051
